{
  "contractName": "FakeNews",
  "abi": [
    {
      "inputs": [],
      "stateMutability": "nonpayable",
      "type": "constructor"
    },
    {
      "anonymous": false,
      "inputs": [
        {
          "indexed": true,
          "internalType": "uint256",
          "name": "_newsId",
          "type": "uint256"
        }
      ],
      "name": "votedEvent",
      "type": "event"
    },
    {
      "inputs": [],
      "name": "newsCount",
      "outputs": [
        {
          "internalType": "uint256",
          "name": "",
          "type": "uint256"
        }
      ],
      "stateMutability": "view",
      "type": "function",
      "constant": true
    },
    {
      "inputs": [
        {
          "internalType": "uint256",
          "name": "",
          "type": "uint256"
        }
      ],
      "name": "newses",
      "outputs": [
        {
          "internalType": "uint256",
          "name": "id",
          "type": "uint256"
        },
        {
          "internalType": "string",
          "name": "name",
          "type": "string"
        },
        {
          "internalType": "uint256",
          "name": "voteCount",
          "type": "uint256"
        },
        {
          "internalType": "uint256",
          "name": "upVote",
          "type": "uint256"
        },
        {
          "internalType": "uint256",
          "name": "downVote",
          "type": "uint256"
        },
        {
          "internalType": "string",
          "name": "verdict",
          "type": "string"
        }
      ],
      "stateMutability": "view",
      "type": "function",
      "constant": true
    },
    {
      "inputs": [
        {
          "internalType": "address",
          "name": "",
          "type": "address"
        },
        {
          "internalType": "uint256",
          "name": "",
          "type": "uint256"
        }
      ],
      "name": "voters",
      "outputs": [
        {
          "internalType": "uint256",
          "name": "",
          "type": "uint256"
        }
      ],
      "stateMutability": "view",
      "type": "function",
      "constant": true
    },
    {
      "inputs": [
        {
          "internalType": "uint256",
          "name": "_newsId",
          "type": "uint256"
        }
      ],
      "name": "vote",
      "outputs": [],
      "stateMutability": "nonpayable",
      "type": "function"
    },
    {
      "inputs": [
        {
          "internalType": "uint256",
          "name": "_newsId",
          "type": "uint256"
        }
      ],
      "name": "downVote",
      "outputs": [],
      "stateMutability": "nonpayable",
      "type": "function"
    },
    {
      "inputs": [
        {
          "internalType": "uint256",
          "name": "_newsId",
          "type": "uint256"
        }
      ],
      "name": "result",
      "outputs": [],
      "stateMutability": "nonpayable",
      "type": "function"
    }
  ],
  "bytecode": "0x60806040523480156200001157600080fd5b50620000586040518060400160405280601a81526020017f5472756d70206c6f737420696e2074686520456c656374696f6e000000000000815250620000f860201b60201c565b620000826040518060600160405280602f815260200162001520602f9139620000f860201b60201c565b620000c86040518060400160405280601d81526020017f496e646961206c6f73742074686520542d323020576f726c6420437570000000815250620000f860201b60201c565b620000f2604051806060016040528060388152602001620014e860389139620000f860201b60201c565b620005c9565b600260008154809291906200010d9062000225565b91905055506040518060c0016040528060025481526020018281526020016000815260200160008152602001600081526020016040518060400160405280600d81526020017f54656e7461697665204e65777300000000000000000000000000000000000000815250815250600160006002548152602001908152602001600020600082015181600001556020820151816001019081620001af9190620004e2565b5060408201518160020155606082015181600301556080820151816004015560a0820151816005019081620001e59190620004e2565b5090505050565b7f4e487b7100000000000000000000000000000000000000000000000000000000600052601160045260246000fd5b6000819050919050565b600062000232826200021b565b91507fffffffffffffffffffffffffffffffffffffffffffffffffffffffffffffffff8203620002675762000266620001ec565b5b600182019050919050565b600081519050919050565b7f4e487b7100000000000000000000000000000000000000000000000000000000600052604160045260246000fd5b7f4e487b7100000000000000000000000000000000000000000000000000000000600052602260045260246000fd5b60006002820490506001821680620002f457607f821691505b6020821081036200030a5762000309620002ac565b5b50919050565b60008190508160005260206000209050919050565b60006020601f8301049050919050565b600082821b905092915050565b600060088302620003747fffffffffffffffffffffffffffffffffffffffffffffffffffffffffffffffff8262000335565b62000380868362000335565b95508019841693508086168417925050509392505050565b6000819050919050565b6000620003c3620003bd620003b7846200021b565b62000398565b6200021b565b9050919050565b6000819050919050565b620003df83620003a2565b620003f7620003ee82620003ca565b84845462000342565b825550505050565b600090565b6200040e620003ff565b6200041b818484620003d4565b505050565b5b8181101562000443576200043760008262000404565b60018101905062000421565b5050565b601f82111562000492576200045c8162000310565b620004678462000325565b8101602085101562000477578190505b6200048f620004868562000325565b83018262000420565b50505b505050565b600082821c905092915050565b6000620004b76000198460080262000497565b1980831691505092915050565b6000620004d28383620004a4565b9150826002028217905092915050565b620004ed8262000272565b67ffffffffffffffff8111156200050957620005086200027d565b5b620005158254620002db565b6200052282828562000447565b600060209050601f8311600181146200055a576000841562000545578287015190505b620005518582620004c4565b865550620005c1565b601f1984166200056a8662000310565b60005b8281101562000594578489015182556001820191506020850194506020810190506200056d565b86831015620005b45784890151620005b0601f891682620004a4565b8355505b6001600288020188555050505b505050505050565b610f0f80620005d96000396000f3fe608060405234801561001057600080fd5b50600436106100625760003560e01c80630121b93f146100675780631ae9392d146100835780633c5940591461009f5780635c134d66146100bb5780639981d6d3146100eb578063f1202e0c14610109575b600080fd5b610081600480360381019061007c91906108c6565b61013e565b005b61009d600480360381019061009891906108c6565b610362565b005b6100b960048036038101906100b491906108c6565b610586565b005b6100d560048036038101906100d09190610951565b610708565b6040516100e291906109a0565b60405180910390f35b6100f3610739565b60405161010091906109a0565b60405180910390f35b610123600480360381019061011e91906108c6565b61073f565b60405161013596959493929190610a4b565b60405180910390f35b803360006001905060008060008473ffffffffffffffffffffffffffffffffffffffff1673ffffffffffffffffffffffffffffffffffffffff1681526020019081526020016000208054806020026020016040519081016040528092919081815260200182805480156101d057602002820191906000526020600020905b8154815260200190600101908083116101bc575b505050505090506000815111156102285760005b8151811015610226578482828151811061020157610200610aba565b5b60200260200101510361021357600092505b808061021e90610b18565b9150506101e4565b505b81610268576040517f08c379a000000000000000000000000000000000000000000000000000000000815260040161025f90610bac565b60405180910390fd5b6000803373ffffffffffffffffffffffffffffffffffffffff1673ffffffffffffffffffffffffffffffffffffffff1681526020019081526020016000208590806001815401808255809150506001900390600052602060002001600090919091909150556001600086815260200190815260200160002060020160008154809291906102f490610b18565b919050555060016000868152602001908152602001600020600301600081548092919061032090610b18565b919050555061032e85610586565b847ffff3c900d938d21d0990d786e819f29b8d05c1ef587b462b939609625b684b1660405160405180910390a25050505050565b803360006001905060008060008473ffffffffffffffffffffffffffffffffffffffff1673ffffffffffffffffffffffffffffffffffffffff1681526020019081526020016000208054806020026020016040519081016040528092919081815260200182805480156103f457602002820191906000526020600020905b8154815260200190600101908083116103e0575b5050505050905060008151111561044c5760005b815181101561044a578482828151811061042557610424610aba565b5b60200260200101510361043757600092505b808061044290610b18565b915050610408565b505b8161048c576040517f08c379a000000000000000000000000000000000000000000000000000000000815260040161048390610bac565b60405180910390fd5b6000803373ffffffffffffffffffffffffffffffffffffffff1673ffffffffffffffffffffffffffffffffffffffff16815260200190815260200160002085908060018154018082558091505060019003906000526020600020016000909190919091505560016000868152602001908152602001600020600201600081548092919061051890610b18565b919050555060016000868152602001908152602001600020600401600081548092919061054490610b18565b919050555061055285610586565b847ffff3c900d938d21d0990d786e819f29b8d05c1ef587b462b939609625b684b1660405160405180910390a25050505050565b600160008281526020019081526020016000206004015460016000838152602001908152602001600020600301541115610618576040518060400160405280600981526020017f5265616c204e65777300000000000000000000000000000000000000000000008152506001600083815260200190815260200160002060050190816106129190610e07565b50610705565b6001600082815260200190815260200160002060040154600160008381526020019081526020016000206003015410156106aa576040518060400160405280600981526020017f46616b65204e65777300000000000000000000000000000000000000000000008152506001600083815260200190815260200160002060050190816106a49190610e07565b50610704565b6040518060400160405280600e81526020017f54656e746174697665204e6577730000000000000000000000000000000000008152506001600083815260200190815260200160002060050190816107029190610e07565b505b5b50565b6000602052816000526040600020818154811061072457600080fd5b90600052602060002001600091509150505481565b60025481565b600160205280600052604060002060009150905080600001549080600101805461076890610c2a565b80601f016020809104026020016040519081016040528092919081815260200182805461079490610c2a565b80156107e15780601f106107b6576101008083540402835291602001916107e1565b820191906000526020600020905b8154815290600101906020018083116107c457829003601f168201915b50505050509080600201549080600301549080600401549080600501805461080890610c2a565b80601f016020809104026020016040519081016040528092919081815260200182805461083490610c2a565b80156108815780601f1061085657610100808354040283529160200191610881565b820191906000526020600020905b81548152906001019060200180831161086457829003601f168201915b5050505050905086565b600080fd5b6000819050919050565b6108a381610890565b81146108ae57600080fd5b50565b6000813590506108c08161089a565b92915050565b6000602082840312156108dc576108db61088b565b5b60006108ea848285016108b1565b91505092915050565b600073ffffffffffffffffffffffffffffffffffffffff82169050919050565b600061091e826108f3565b9050919050565b61092e81610913565b811461093957600080fd5b50565b60008135905061094b81610925565b92915050565b600080604083850312156109685761096761088b565b5b60006109768582860161093c565b9250506020610987858286016108b1565b9150509250929050565b61099a81610890565b82525050565b60006020820190506109b56000830184610991565b92915050565b600081519050919050565b600082825260208201905092915050565b60005b838110156109f55780820151818401526020810190506109da565b60008484015250505050565b6000601f19601f8301169050919050565b6000610a1d826109bb565b610a2781856109c6565b9350610a378185602086016109d7565b610a4081610a01565b840191505092915050565b600060c082019050610a606000830189610991565b8181036020830152610a728188610a12565b9050610a816040830187610991565b610a8e6060830186610991565b610a9b6080830185610991565b81810360a0830152610aad8184610a12565b9050979650505050505050565b7f4e487b7100000000000000000000000000000000000000000000000000000000600052603260045260246000fd5b7f4e487b7100000000000000000000000000000000000000000000000000000000600052601160045260246000fd5b6000610b2382610890565b91507fffffffffffffffffffffffffffffffffffffffffffffffffffffffffffffffff8203610b5557610b54610ae9565b5b600182019050919050565b7f4e6f7420612056616c696420566f746572000000000000000000000000000000600082015250565b6000610b966011836109c6565b9150610ba182610b60565b602082019050919050565b60006020820190508181036000830152610bc581610b89565b9050919050565b7f4e487b7100000000000000000000000000000000000000000000000000000000600052604160045260246000fd5b7f4e487b7100000000000000000000000000000000000000000000000000000000600052602260045260246000fd5b60006002820490506001821680610c4257607f821691505b602082108103610c5557610c54610bfb565b5b50919050565b60008190508160005260206000209050919050565b60006020601f8301049050919050565b600082821b905092915050565b600060088302610cbd7fffffffffffffffffffffffffffffffffffffffffffffffffffffffffffffffff82610c80565b610cc78683610c80565b95508019841693508086168417925050509392505050565b6000819050919050565b6000610d04610cff610cfa84610890565b610cdf565b610890565b9050919050565b6000819050919050565b610d1e83610ce9565b610d32610d2a82610d0b565b848454610c8d565b825550505050565b600090565b610d47610d3a565b610d52818484610d15565b505050565b5b81811015610d7657610d6b600082610d3f565b600181019050610d58565b5050565b601f821115610dbb57610d8c81610c5b565b610d9584610c70565b81016020851015610da4578190505b610db8610db085610c70565b830182610d57565b50505b505050565b600082821c905092915050565b6000610dde60001984600802610dc0565b1980831691505092915050565b6000610df78383610dcd565b9150826002028217905092915050565b610e10826109bb565b67ffffffffffffffff811115610e2957610e28610bcc565b5b610e338254610c2a565b610e3e828285610d7a565b600060209050601f831160018114610e715760008415610e5f578287015190505b610e698582610deb565b865550610ed1565b601f198416610e7f86610c5b565b60005b82811015610ea757848901518255600182019150602085019450602081019050610e82565b86831015610ec45784890151610ec0601f891682610dcd565b8355505b6001600288020188555050505b50505050505056fea26469706673582212201e87fdda681bbfd85ddf64a129d4633d675e51bb3f1f572d152993ca78b1ae5a64736f6c6343000811003343616e616469616e2070656f706c65206c6f736520746869657220747275737420696e207468656972205072696d65204d696e697374657252757373696120506c616e7320746f2064726f70204e75636c65617220776561706f6e73206f6e20556b7261696e65",
  "immutableReferences": {},
  "source": "pragma solidity ^0.8.17;\n\ncontract FakeNews {\n    // Model a Candidate\n    struct News {\n        uint id;\n        string name;\n        uint voteCount;\n        uint upVote;\n        uint downVote;\n        string verdict;\n    }\n\n    // Store accounts that have voted\n    mapping(address => uint[]) public voters;\n\n    mapping(uint => News) public newses;\n    uint public newsCount;\n\n    event votedEvent (\n        uint indexed _newsId\n    );\n\nmodifier validVoter(uint newsId ,address sender) {\n    bool isValid = true;\n    uint[] memory votes = voters[sender];\n\n    if( votes.length > 0) {        \n        for(uint i=0;i<votes.length;i++){\n            if(votes[i] == newsId) {\n                isValid = false;\n            }\n        }\n    }\n    require(isValid,\"Not a Valid Voter\");\n    _;\n}\n   \n    constructor () {\n        addNews(\"Trump lost in the Election\");\n        addNews(\"Russia Plans to drop Nuclear weapons on Ukraine\");\n        addNews(\"India lost the T-20 World Cup\");\n        addNews(\"Canadian people lose thier trust in their Prime Minister\");\n    }\n\n    function addNews (string memory _name) private {\n        newsCount ++;\n        newses[newsCount] = News(newsCount, _name, 0,0,0,\"Tentaive News\");\n    }\n function vote (uint _newsId) validVoter(_newsId,msg.sender) public {\n\n        voters[msg.sender].push(_newsId);\n\n        // update news vote Count\n        newses[_newsId].voteCount ++;\n        newses[_newsId].upVote ++;\n        result(_newsId);        // trigger voted event\n        emit votedEvent(_newsId);\n    }\n\n    function downVote (uint _newsId) validVoter(_newsId,msg.sender) public {\n\n        voters[msg.sender].push(_newsId);\n\n        // update news vote Count\n        newses[_newsId].voteCount ++;\n        newses[_newsId].downVote ++;\n        result(_newsId);\n        // trigger voted event\n        emit votedEvent(_newsId);\n    }\n    function result(uint _newsId ) public {\n        if(newses[_newsId].upVote>newses[_newsId].downVote){\n            newses[_newsId].verdict = \"Real News\";\n        }\n        else if(newses[_newsId].upVote<newses[_newsId].downVote){\n            newses[_newsId].verdict = \"Fake News\";\n        }\n        else{\n            newses[_newsId].verdict = \"Tentative News\";\n        }\n    }\n  \n}\n",
  "sourcePath": "C:\\Users\\sumanth\\Downloads\\fakenewslatestnew\\FakeNews\\FakeNews\\contracts\\FakeNews.sol",
  "compiler": {
    "name": "solc",
    "version": "0.8.17+commit.8df45f5f.Emscripten.clang"
  },
  "schemaVersion": "3.4.10",
  "updatedAt": "2022-12-02T04:10:28.327Z",
  "networkType": "ethereum",
  "devdoc": {
    "kind": "dev",
    "methods": {},
    "version": 1
  },
  "userdoc": {
    "kind": "user",
    "methods": {},
    "version": 1
  }
}